{
  "_format": "hh-sol-artifact-1",
  "contractName": "TicketContract",
  "sourceName": "contracts/TicketContract.sol",
  "abi": [
    {
      "inputs": [],
      "stateMutability": "nonpayable",
      "type": "constructor"
    },
    {
      "anonymous": false,
      "inputs": [
        {
          "indexed": true,
          "internalType": "address",
          "name": "account",
          "type": "address"
        },
        {
          "indexed": true,
          "internalType": "address",
          "name": "operator",
          "type": "address"
        },
        {
          "indexed": false,
          "internalType": "bool",
          "name": "approved",
          "type": "bool"
        }
      ],
      "name": "ApprovalForAll",
      "type": "event"
    },
    {
      "anonymous": false,
      "inputs": [
        {
          "indexed": true,
          "internalType": "address",
          "name": "previousOwner",
          "type": "address"
        },
        {
          "indexed": true,
          "internalType": "address",
          "name": "newOwner",
          "type": "address"
        }
      ],
      "name": "OwnershipTransferred",
      "type": "event"
    },
    {
      "anonymous": false,
      "inputs": [
        {
          "indexed": false,
          "internalType": "address",
          "name": "account",
          "type": "address"
        }
      ],
      "name": "Paused",
      "type": "event"
    },
    {
      "anonymous": false,
      "inputs": [
        {
          "indexed": true,
          "internalType": "uint256",
          "name": "id",
          "type": "uint256"
        },
        {
          "indexed": true,
          "internalType": "address",
          "name": "minter",
          "type": "address"
        },
        {
          "indexed": true,
          "internalType": "string",
          "name": "name",
          "type": "string"
        },
        {
          "indexed": false,
          "internalType": "uint256",
          "name": "price",
          "type": "uint256"
        },
        {
          "indexed": false,
          "internalType": "uint256",
          "name": "amount",
          "type": "uint256"
        },
        {
          "indexed": false,
          "internalType": "uint256",
          "name": "maxSellPerPerson",
          "type": "uint256"
        }
      ],
      "name": "TicketCreated",
      "type": "event"
    },
    {
      "anonymous": false,
      "inputs": [
        {
          "indexed": true,
          "internalType": "uint256",
          "name": "id",
          "type": "uint256"
        },
        {
          "indexed": true,
          "internalType": "address",
          "name": "seller",
          "type": "address"
        },
        {
          "indexed": true,
          "internalType": "address",
          "name": "buyer",
          "type": "address"
        },
        {
          "indexed": false,
          "internalType": "uint256",
          "name": "amount",
          "type": "uint256"
        }
      ],
      "name": "TicketSold",
      "type": "event"
    },
    {
      "anonymous": false,
      "inputs": [
        {
          "indexed": true,
          "internalType": "address",
          "name": "operator",
          "type": "address"
        },
        {
          "indexed": true,
          "internalType": "address",
          "name": "from",
          "type": "address"
        },
        {
          "indexed": true,
          "internalType": "address",
          "name": "to",
          "type": "address"
        },
        {
          "indexed": false,
          "internalType": "uint256[]",
          "name": "ids",
          "type": "uint256[]"
        },
        {
          "indexed": false,
          "internalType": "uint256[]",
          "name": "values",
          "type": "uint256[]"
        }
      ],
      "name": "TransferBatch",
      "type": "event"
    },
    {
      "anonymous": false,
      "inputs": [
        {
          "indexed": true,
          "internalType": "address",
          "name": "operator",
          "type": "address"
        },
        {
          "indexed": true,
          "internalType": "address",
          "name": "from",
          "type": "address"
        },
        {
          "indexed": true,
          "internalType": "address",
          "name": "to",
          "type": "address"
        },
        {
          "indexed": false,
          "internalType": "uint256",
          "name": "id",
          "type": "uint256"
        },
        {
          "indexed": false,
          "internalType": "uint256",
          "name": "value",
          "type": "uint256"
        }
      ],
      "name": "TransferSingle",
      "type": "event"
    },
    {
      "anonymous": false,
      "inputs": [
        {
          "indexed": false,
          "internalType": "string",
          "name": "value",
          "type": "string"
        },
        {
          "indexed": true,
          "internalType": "uint256",
          "name": "id",
          "type": "uint256"
        }
      ],
      "name": "URI",
      "type": "event"
    },
    {
      "anonymous": false,
      "inputs": [
        {
          "indexed": false,
          "internalType": "address",
          "name": "account",
          "type": "address"
        }
      ],
      "name": "Unpaused",
      "type": "event"
    },
    {
      "inputs": [
        {
          "internalType": "address",
          "name": "account",
          "type": "address"
        },
        {
          "internalType": "uint256",
          "name": "id",
          "type": "uint256"
        }
      ],
      "name": "balanceOf",
      "outputs": [
        {
          "internalType": "uint256",
          "name": "",
          "type": "uint256"
        }
      ],
      "stateMutability": "view",
      "type": "function"
    },
    {
      "inputs": [
        {
          "internalType": "address[]",
          "name": "accounts",
          "type": "address[]"
        },
        {
          "internalType": "uint256[]",
          "name": "ids",
          "type": "uint256[]"
        }
      ],
      "name": "balanceOfBatch",
      "outputs": [
        {
          "internalType": "uint256[]",
          "name": "",
          "type": "uint256[]"
        }
      ],
      "stateMutability": "view",
      "type": "function"
    },
    {
      "inputs": [
        {
          "internalType": "address",
          "name": "account",
          "type": "address"
        },
        {
          "internalType": "uint256",
          "name": "id",
          "type": "uint256"
        },
        {
          "internalType": "uint256",
          "name": "amount",
          "type": "uint256"
        }
      ],
      "name": "burn",
      "outputs": [],
      "stateMutability": "nonpayable",
      "type": "function"
    },
    {
      "inputs": [
        {
          "internalType": "address",
          "name": "account",
          "type": "address"
        },
        {
          "internalType": "uint256[]",
          "name": "ids",
          "type": "uint256[]"
        },
        {
          "internalType": "uint256[]",
          "name": "values",
          "type": "uint256[]"
        }
      ],
      "name": "burnBatch",
      "outputs": [],
      "stateMutability": "nonpayable",
      "type": "function"
    },
    {
      "inputs": [
        {
          "internalType": "uint256",
          "name": "id",
          "type": "uint256"
        },
        {
          "internalType": "uint256",
          "name": "amount",
          "type": "uint256"
        },
        {
          "internalType": "bytes",
          "name": "data",
          "type": "bytes"
        }
      ],
      "name": "buy",
      "outputs": [],
      "stateMutability": "payable",
      "type": "function"
    },
    {
      "inputs": [
        {
          "internalType": "string",
          "name": "name",
          "type": "string"
        },
        {
          "internalType": "uint256",
          "name": "price",
          "type": "uint256"
        },
        {
          "internalType": "uint256",
          "name": "amount",
          "type": "uint256"
        },
        {
          "internalType": "uint256",
          "name": "maxSellPerPerson",
          "type": "uint256"
        },
        {
          "internalType": "string",
          "name": "infoUrl",
          "type": "string"
        },
        {
          "internalType": "bytes",
          "name": "data",
          "type": "bytes"
        }
      ],
      "name": "create",
      "outputs": [],
      "stateMutability": "nonpayable",
      "type": "function"
    },
    {
      "inputs": [
        {
          "internalType": "address",
          "name": "account",
          "type": "address"
        },
        {
          "internalType": "address",
          "name": "operator",
          "type": "address"
        }
      ],
      "name": "isApprovedForAll",
      "outputs": [
        {
          "internalType": "bool",
          "name": "",
          "type": "bool"
        }
      ],
      "stateMutability": "view",
      "type": "function"
    },
    {
      "inputs": [],
      "name": "nonce",
      "outputs": [
        {
          "internalType": "uint256",
          "name": "",
          "type": "uint256"
        }
      ],
      "stateMutability": "view",
      "type": "function"
    },
    {
      "inputs": [],
      "name": "owner",
      "outputs": [
        {
          "internalType": "address",
          "name": "",
          "type": "address"
        }
      ],
      "stateMutability": "view",
      "type": "function"
    },
    {
      "inputs": [],
      "name": "pause",
      "outputs": [],
      "stateMutability": "nonpayable",
      "type": "function"
    },
    {
      "inputs": [],
      "name": "paused",
      "outputs": [
        {
          "internalType": "bool",
          "name": "",
          "type": "bool"
        }
      ],
      "stateMutability": "view",
      "type": "function"
    },
    {
      "inputs": [],
      "name": "renounceOwnership",
      "outputs": [],
      "stateMutability": "nonpayable",
      "type": "function"
    },
    {
      "inputs": [
        {
          "internalType": "address",
          "name": "from",
          "type": "address"
        },
        {
          "internalType": "address",
          "name": "to",
          "type": "address"
        },
        {
          "internalType": "uint256[]",
          "name": "ids",
          "type": "uint256[]"
        },
        {
          "internalType": "uint256[]",
          "name": "amounts",
          "type": "uint256[]"
        },
        {
          "internalType": "bytes",
          "name": "data",
          "type": "bytes"
        }
      ],
      "name": "safeBatchTransferFrom",
      "outputs": [],
      "stateMutability": "nonpayable",
      "type": "function"
    },
    {
      "inputs": [
        {
          "internalType": "address",
          "name": "from",
          "type": "address"
        },
        {
          "internalType": "address",
          "name": "to",
          "type": "address"
        },
        {
          "internalType": "uint256",
          "name": "id",
          "type": "uint256"
        },
        {
          "internalType": "uint256",
          "name": "amount",
          "type": "uint256"
        },
        {
          "internalType": "bytes",
          "name": "data",
          "type": "bytes"
        }
      ],
      "name": "safeTransferFrom",
      "outputs": [],
      "stateMutability": "nonpayable",
      "type": "function"
    },
    {
      "inputs": [
        {
          "internalType": "address",
          "name": "operator",
          "type": "address"
        },
        {
          "internalType": "bool",
          "name": "approved",
          "type": "bool"
        }
      ],
      "name": "setApprovalForAll",
      "outputs": [],
      "stateMutability": "nonpayable",
      "type": "function"
    },
    {
      "inputs": [
        {
          "internalType": "bytes4",
          "name": "interfaceId",
          "type": "bytes4"
        }
      ],
      "name": "supportsInterface",
      "outputs": [
        {
          "internalType": "bool",
          "name": "",
          "type": "bool"
        }
      ],
      "stateMutability": "view",
      "type": "function"
    },
    {
      "inputs": [
        {
          "internalType": "uint256",
          "name": "",
          "type": "uint256"
        }
      ],
      "name": "tickets",
      "outputs": [
        {
          "internalType": "uint256",
          "name": "id",
          "type": "uint256"
        },
        {
          "internalType": "string",
          "name": "name",
          "type": "string"
        },
        {
          "internalType": "uint256",
          "name": "price",
          "type": "uint256"
        },
        {
          "internalType": "uint256",
          "name": "maxSellPerPerson",
          "type": "uint256"
        },
        {
          "internalType": "string",
          "name": "infoUrl",
          "type": "string"
        }
      ],
      "stateMutability": "view",
      "type": "function"
    },
    {
      "inputs": [
        {
          "internalType": "uint256",
          "name": "",
          "type": "uint256"
        }
      ],
      "name": "tokenIds",
      "outputs": [
        {
          "internalType": "uint256",
          "name": "",
          "type": "uint256"
        }
      ],
      "stateMutability": "view",
      "type": "function"
    },
    {
      "inputs": [],
      "name": "tokenIdsLength",
      "outputs": [
        {
          "internalType": "uint256",
          "name": "",
          "type": "uint256"
        }
      ],
      "stateMutability": "view",
      "type": "function"
    },
    {
      "inputs": [
        {
          "internalType": "address",
          "name": "newOwner",
          "type": "address"
        }
      ],
      "name": "transferOwnership",
      "outputs": [],
      "stateMutability": "nonpayable",
      "type": "function"
    },
    {
      "inputs": [],
      "name": "unpause",
      "outputs": [],
      "stateMutability": "nonpayable",
      "type": "function"
    },
    {
      "inputs": [
        {
          "internalType": "uint256",
          "name": "",
          "type": "uint256"
        }
      ],
      "name": "uri",
      "outputs": [
        {
          "internalType": "string",
          "name": "",
          "type": "string"
        }
      ],
      "stateMutability": "view",
      "type": "function"
    }
  ],
  "bytecode": "0x60806040523480156200001157600080fd5b506040518060200160405280600081525062000033816200007d60201b60201c565b5062000054620000486200009260201b60201c565b6200009a60201b60201c565b6000600360146101000a81548160ff0219169083151502179055506000600481905550620004c1565b80600290816200008e9190620003da565b5050565b600033905090565b6000600360009054906101000a900473ffffffffffffffffffffffffffffffffffffffff16905081600360006101000a81548173ffffffffffffffffffffffffffffffffffffffff021916908373ffffffffffffffffffffffffffffffffffffffff1602179055508173ffffffffffffffffffffffffffffffffffffffff168173ffffffffffffffffffffffffffffffffffffffff167f8be0079c531659141344cd1fd0a4f28419497f9722a3daafe3b4186f6b6457e060405160405180910390a35050565b600081519050919050565b7f4e487b7100000000000000000000000000000000000000000000000000000000600052604160045260246000fd5b7f4e487b7100000000000000000000000000000000000000000000000000000000600052602260045260246000fd5b60006002820490506001821680620001e257607f821691505b602082108103620001f857620001f76200019a565b5b50919050565b60008190508160005260206000209050919050565b60006020601f8301049050919050565b600082821b905092915050565b600060088302620002627fffffffffffffffffffffffffffffffffffffffffffffffffffffffffffffffff8262000223565b6200026e868362000223565b95508019841693508086168417925050509392505050565b6000819050919050565b6000819050919050565b6000620002bb620002b5620002af8462000286565b62000290565b62000286565b9050919050565b6000819050919050565b620002d7836200029a565b620002ef620002e682620002c2565b84845462000230565b825550505050565b600090565b62000306620002f7565b62000313818484620002cc565b505050565b5b818110156200033b576200032f600082620002fc565b60018101905062000319565b5050565b601f8211156200038a576200035481620001fe565b6200035f8462000213565b810160208510156200036f578190505b620003876200037e8562000213565b83018262000318565b50505b505050565b600082821c905092915050565b6000620003af600019846008026200038f565b1980831691505092915050565b6000620003ca83836200039c565b9150826002028217905092915050565b620003e58262000160565b67ffffffffffffffff8111156200040157620004006200016b565b5b6200040d8254620001c9565b6200041a8282856200033f565b600060209050601f8311600181146200045257600084156200043d578287015190505b620004498582620003bc565b865550620004b9565b601f1984166200046286620001fe565b60005b828110156200048c5784890151825560018201915060208501945060208101905062000465565b86831015620004ac5784890151620004a8601f8916826200039c565b8355505b6001600288020188555050505b505050505050565b6148a280620004d16000396000f3fe6080604052600436106101345760003560e01c8063715018a6116100ab578063d58778d61161006f578063d58778d6146103f4578063e6b7ad7914610431578063e985e9c51461045c578063f242432a14610499578063f2fde38b146104c2578063f5298aca146104eb57610134565b8063715018a6146103475780638456cb591461035e5780638da5cb5b14610375578063a22cb465146103a0578063affed0e0146103c957610134565b80632eb2c2d6116100fd5780632eb2c2d6146102355780633f4ba83a1461025e5780634e1273f41461027557806350b44712146102b25780635c975abb146102f35780636b20c4541461031e57610134565b8062fdd58e1461013957806301ffc9a714610176578063046e2b09146101b35780630e89341c146101dc5780631efd73a514610219575b600080fd5b34801561014557600080fd5b50610160600480360381019061015b9190612941565b610514565b60405161016d9190612990565b60405180910390f35b34801561018257600080fd5b5061019d60048036038101906101989190612a03565b6105dc565b6040516101aa9190612a4b565b60405180910390f35b3480156101bf57600080fd5b506101da60048036038101906101d59190612c4d565b6106be565b005b3480156101e857600080fd5b5061020360048036038101906101fe9190612d2e565b6108fa565b6040516102109190612dda565b60405180910390f35b610233600480360381019061022e9190612dfc565b61098e565b005b34801561024157600080fd5b5061025c60048036038101906102579190612f33565b610ca3565b005b34801561026a57600080fd5b50610273610d44565b005b34801561028157600080fd5b5061029c600480360381019061029791906130c5565b610d56565b6040516102a991906131fb565b60405180910390f35b3480156102be57600080fd5b506102d960048036038101906102d49190612d2e565b610e6f565b6040516102ea95949392919061321d565b60405180910390f35b3480156102ff57600080fd5b50610308610fb5565b6040516103159190612a4b565b60405180910390f35b34801561032a57600080fd5b506103456004803603810190610340919061327e565b610fcc565b005b34801561035357600080fd5b5061035c611069565b005b34801561036a57600080fd5b5061037361107d565b005b34801561038157600080fd5b5061038a61108f565b6040516103979190613318565b60405180910390f35b3480156103ac57600080fd5b506103c760048036038101906103c2919061335f565b6110b9565b005b3480156103d557600080fd5b506103de6110cf565b6040516103eb9190612990565b60405180910390f35b34801561040057600080fd5b5061041b60048036038101906104169190612d2e565b6110d5565b6040516104289190612990565b60405180910390f35b34801561043d57600080fd5b506104466110f9565b6040516104539190612990565b60405180910390f35b34801561046857600080fd5b50610483600480360381019061047e919061339f565b6110ff565b6040516104909190612a4b565b60405180910390f35b3480156104a557600080fd5b506104c060048036038101906104bb91906133df565b611193565b005b3480156104ce57600080fd5b506104e960048036038101906104e49190613476565b611234565b005b3480156104f757600080fd5b50610512600480360381019061050d91906134a3565b6112b7565b005b60008073ffffffffffffffffffffffffffffffffffffffff168373ffffffffffffffffffffffffffffffffffffffff1603610584576040517f08c379a000000000000000000000000000000000000000000000000000000000815260040161057b90613568565b60405180910390fd5b60008083815260200190815260200160002060008473ffffffffffffffffffffffffffffffffffffffff1673ffffffffffffffffffffffffffffffffffffffff16815260200190815260200160002054905092915050565b60007fd9b67a26000000000000000000000000000000000000000000000000000000007bffffffffffffffffffffffffffffffffffffffffffffffffffffffff1916827bffffffffffffffffffffffffffffffffffffffffffffffffffffffff191614806106a757507f0e89341c000000000000000000000000000000000000000000000000000000007bffffffffffffffffffffffffffffffffffffffffffffffffffffffff1916827bffffffffffffffffffffffffffffffffffffffffffffffffffffffff1916145b806106b757506106b6826112cf565b5b9050919050565b6106c6611339565b83836000821161070b576040517f08c379a0000000000000000000000000000000000000000000000000000000008152600401610702906135d4565b60405180910390fd5b6000811161074e576040517f08c379a000000000000000000000000000000000000000000000000000000000815260040161074590613640565b60405180910390fd5b80821015610791576040517f08c379a0000000000000000000000000000000000000000000000000000000008152600401610788906135d4565b60405180910390fd5b6107996113b7565b60006004600081546107aa9061368f565b9190508190559050600033905060006040518060a001604052808481526020018c81526020018b81526020018981526020018881525090506005839080600181540180825580915050600190039060005260206000200160009091909190915055600580549050600681905550806007600085815260200190815260200160002060008201518160000155602082015181600101908161084a91906138e3565b506040820151816002015560608201518160030155608082015181600401908161087491906138e3565b5090505061088482848b89611401565b8a60405161089291906139f1565b60405180910390208273ffffffffffffffffffffffffffffffffffffffff16847f9d783e202083d1fb37ad562ef4e7776ae35886aa85bb86b72e48e66f58f03f4d8d8d8d6040516108e593929190613a08565b60405180910390a45050505050505050505050565b60606002805461090990613706565b80601f016020809104026020016040519081016040528092919081815260200182805461093590613706565b80156109825780601f1061095757610100808354040283529160200191610982565b820191906000526020600020905b81548152906001019060200180831161096557829003601f168201915b50505050509050919050565b8183600082116109d3576040517f08c379a00000000000000000000000000000000000000000000000000000000081526004016109ca90613a8b565b60405180910390fd5b816109e56109df61108f565b83610514565b1015610a26576040517f08c379a0000000000000000000000000000000000000000000000000000000008152600401610a1d90613af7565b60405180910390fd5b600082610a333384610514565b610a3d9190613b17565b90506007600083815260200190815260200160002060030154811115610a98576040517f08c379a0000000000000000000000000000000000000000000000000000000008152600401610a8f90613b97565b60405180910390fd5b84866000600760008381526020019081526020016000206002015483610abe9190613bb7565b9050348114610b02576040517f08c379a0000000000000000000000000000000000000000000000000000000008152600401610af9906135d4565b60405180910390fd5b886000600760008381526020019081526020016000206002015403610b5c576040517f08c379a0000000000000000000000000000000000000000000000000000000008152600401610b5390613c45565b60405180910390fd5b610b646113b7565b6000610b6e61108f565b9050600033905060008273ffffffffffffffffffffffffffffffffffffffff1634604051610b9b90613c96565b60006040518083038185875af1925050503d8060008114610bd8576040519150601f19603f3d011682016040523d82523d6000602084013e610bdd565b606091505b5050905080610c21576040517f08c379a0000000000000000000000000000000000000000000000000000000008152600401610c1890613cf7565b60405180910390fd5b610c2e83838f8f8f6115b1565b8173ffffffffffffffffffffffffffffffffffffffff168373ffffffffffffffffffffffffffffffffffffffff168e7f2bbc64d6afd28a753f6c5e4aaa894f1d684c44a0e080167eae104ac8505cfebd8f604051610c8c9190612990565b60405180910390a450505050505050505050505050565b610cab61184c565b73ffffffffffffffffffffffffffffffffffffffff168573ffffffffffffffffffffffffffffffffffffffff161480610cf15750610cf085610ceb61184c565b6110ff565b5b610d30576040517f08c379a0000000000000000000000000000000000000000000000000000000008152600401610d2790613d89565b60405180910390fd5b610d3d8585858585611854565b5050505050565b610d4c611339565b610d54611b75565b565b60608151835114610d9c576040517f08c379a0000000000000000000000000000000000000000000000000000000008152600401610d9390613e1b565b60405180910390fd5b6000835167ffffffffffffffff811115610db957610db8612a81565b5b604051908082528060200260200182016040528015610de75781602001602082028036833780820191505090505b50905060005b8451811015610e6457610e34858281518110610e0c57610e0b613e3b565b5b6020026020010151858381518110610e2757610e26613e3b565b5b6020026020010151610514565b828281518110610e4757610e46613e3b565b5b60200260200101818152505080610e5d9061368f565b9050610ded565b508091505092915050565b6007602052806000526040600020600091509050806000015490806001018054610e9890613706565b80601f0160208091040260200160405190810160405280929190818152602001828054610ec490613706565b8015610f115780601f10610ee657610100808354040283529160200191610f11565b820191906000526020600020905b815481529060010190602001808311610ef457829003601f168201915b505050505090806002015490806003015490806004018054610f3290613706565b80601f0160208091040260200160405190810160405280929190818152602001828054610f5e90613706565b8015610fab5780601f10610f8057610100808354040283529160200191610fab565b820191906000526020600020905b815481529060010190602001808311610f8e57829003601f168201915b5050505050905085565b6000600360149054906101000a900460ff16905090565b610fd461184c565b73ffffffffffffffffffffffffffffffffffffffff168373ffffffffffffffffffffffffffffffffffffffff16148061101a57506110198361101461184c565b6110ff565b5b611059576040517f08c379a000000000000000000000000000000000000000000000000000000000815260040161105090613d89565b60405180910390fd5b611064838383611bd8565b505050565b611071611339565b61107b6000611ea6565b565b611085611339565b61108d611f6c565b565b6000600360009054906101000a900473ffffffffffffffffffffffffffffffffffffffff16905090565b6110cb6110c461184c565b8383611fcf565b5050565b60045481565b600581815481106110e557600080fd5b906000526020600020016000915090505481565b60065481565b6000600160008473ffffffffffffffffffffffffffffffffffffffff1673ffffffffffffffffffffffffffffffffffffffff16815260200190815260200160002060008373ffffffffffffffffffffffffffffffffffffffff1673ffffffffffffffffffffffffffffffffffffffff16815260200190815260200160002060009054906101000a900460ff16905092915050565b61119b61184c565b73ffffffffffffffffffffffffffffffffffffffff168573ffffffffffffffffffffffffffffffffffffffff1614806111e157506111e0856111db61184c565b6110ff565b5b611220576040517f08c379a000000000000000000000000000000000000000000000000000000000815260040161121790613d89565b60405180910390fd5b61122d85858585856115b1565b5050505050565b61123c611339565b600073ffffffffffffffffffffffffffffffffffffffff168173ffffffffffffffffffffffffffffffffffffffff16036112ab576040517f08c379a00000000000000000000000000000000000000000000000000000000081526004016112a290613edc565b60405180910390fd5b6112b481611ea6565b50565b6112bf6113b7565b6112ca83838361213b565b505050565b60007f01ffc9a7000000000000000000000000000000000000000000000000000000007bffffffffffffffffffffffffffffffffffffffffffffffffffffffff1916827bffffffffffffffffffffffffffffffffffffffffffffffffffffffff1916149050919050565b61134161184c565b73ffffffffffffffffffffffffffffffffffffffff1661135f61108f565b73ffffffffffffffffffffffffffffffffffffffff16146113b5576040517f08c379a00000000000000000000000000000000000000000000000000000000081526004016113ac90613f48565b60405180910390fd5b565b6113bf610fb5565b156113ff576040517f08c379a00000000000000000000000000000000000000000000000000000000081526004016113f690613fb4565b60405180910390fd5b565b600073ffffffffffffffffffffffffffffffffffffffff168473ffffffffffffffffffffffffffffffffffffffff1603611470576040517f08c379a000000000000000000000000000000000000000000000000000000000815260040161146790614046565b60405180910390fd5b600061147a61184c565b9050600061148785612381565b9050600061149485612381565b90506114a5836000898585896123fb565b8460008088815260200190815260200160002060008973ffffffffffffffffffffffffffffffffffffffff1673ffffffffffffffffffffffffffffffffffffffff16815260200190815260200160002060008282546115049190613b17565b925050819055508673ffffffffffffffffffffffffffffffffffffffff16600073ffffffffffffffffffffffffffffffffffffffff168473ffffffffffffffffffffffffffffffffffffffff167fc3d58168c5ae7397731d063d5bbf3d657854427343f4c083240f7aacaa2d0f628989604051611582929190614066565b60405180910390a461159983600089858589612411565b6115a883600089898989612419565b50505050505050565b600073ffffffffffffffffffffffffffffffffffffffff168473ffffffffffffffffffffffffffffffffffffffff1603611620576040517f08c379a000000000000000000000000000000000000000000000000000000000815260040161161790614101565b60405180910390fd5b600061162a61184c565b9050600061163785612381565b9050600061164485612381565b90506116548389898585896123fb565b600080600088815260200190815260200160002060008a73ffffffffffffffffffffffffffffffffffffffff1673ffffffffffffffffffffffffffffffffffffffff168152602001908152602001600020549050858110156116eb576040517f08c379a00000000000000000000000000000000000000000000000000000000081526004016116e290614193565b60405180910390fd5b85810360008089815260200190815260200160002060008b73ffffffffffffffffffffffffffffffffffffffff1673ffffffffffffffffffffffffffffffffffffffff168152602001908152602001600020819055508560008089815260200190815260200160002060008a73ffffffffffffffffffffffffffffffffffffffff1673ffffffffffffffffffffffffffffffffffffffff16815260200190815260200160002060008282546117a09190613b17565b925050819055508773ffffffffffffffffffffffffffffffffffffffff168973ffffffffffffffffffffffffffffffffffffffff168573ffffffffffffffffffffffffffffffffffffffff167fc3d58168c5ae7397731d063d5bbf3d657854427343f4c083240f7aacaa2d0f628a8a60405161181d929190614066565b60405180910390a4611833848a8a86868a612411565b611841848a8a8a8a8a612419565b505050505050505050565b600033905090565b8151835114611898576040517f08c379a000000000000000000000000000000000000000000000000000000000815260040161188f90614225565b60405180910390fd5b600073ffffffffffffffffffffffffffffffffffffffff168473ffffffffffffffffffffffffffffffffffffffff1603611907576040517f08c379a00000000000000000000000000000000000000000000000000000000081526004016118fe90614101565b60405180910390fd5b600061191161184c565b90506119218187878787876123fb565b60005b8451811015611ad257600085828151811061194257611941613e3b565b5b60200260200101519050600085838151811061196157611960613e3b565b5b60200260200101519050600080600084815260200190815260200160002060008b73ffffffffffffffffffffffffffffffffffffffff1673ffffffffffffffffffffffffffffffffffffffff16815260200190815260200160002054905081811015611a02576040517f08c379a00000000000000000000000000000000000000000000000000000000081526004016119f990614193565b60405180910390fd5b81810360008085815260200190815260200160002060008c73ffffffffffffffffffffffffffffffffffffffff1673ffffffffffffffffffffffffffffffffffffffff168152602001908152602001600020819055508160008085815260200190815260200160002060008b73ffffffffffffffffffffffffffffffffffffffff1673ffffffffffffffffffffffffffffffffffffffff1681526020019081526020016000206000828254611ab79190613b17565b9250508190555050505080611acb9061368f565b9050611924565b508473ffffffffffffffffffffffffffffffffffffffff168673ffffffffffffffffffffffffffffffffffffffff168273ffffffffffffffffffffffffffffffffffffffff167f4a39dc06d4c0dbc64b70af90fd698a233a518aa5d07e595d983b8c0526c8f7fb8787604051611b49929190614245565b60405180910390a4611b5f818787878787612411565b611b6d8187878787876125f0565b505050505050565b611b7d6127c7565b6000600360146101000a81548160ff0219169083151502179055507f5db9ee0a495bf2e6ff9c91a7834c1ba4fdd244a5e8aa4e537bd38aeae4b073aa611bc161184c565b604051611bce9190613318565b60405180910390a1565b600073ffffffffffffffffffffffffffffffffffffffff168373ffffffffffffffffffffffffffffffffffffffff1603611c47576040517f08c379a0000000000000000000000000000000000000000000000000000000008152600401611c3e906142ee565b60405180910390fd5b8051825114611c8b576040517f08c379a0000000000000000000000000000000000000000000000000000000008152600401611c8290614225565b60405180910390fd5b6000611c9561184c565b9050611cb5818560008686604051806020016040528060008152506123fb565b60005b8351811015611e02576000848281518110611cd657611cd5613e3b565b5b602002602001015190506000848381518110611cf557611cf4613e3b565b5b60200260200101519050600080600084815260200190815260200160002060008973ffffffffffffffffffffffffffffffffffffffff1673ffffffffffffffffffffffffffffffffffffffff16815260200190815260200160002054905081811015611d96576040517f08c379a0000000000000000000000000000000000000000000000000000000008152600401611d8d90614380565b60405180910390fd5b81810360008085815260200190815260200160002060008a73ffffffffffffffffffffffffffffffffffffffff1673ffffffffffffffffffffffffffffffffffffffff168152602001908152602001600020819055505050508080611dfa9061368f565b915050611cb8565b50600073ffffffffffffffffffffffffffffffffffffffff168473ffffffffffffffffffffffffffffffffffffffff168273ffffffffffffffffffffffffffffffffffffffff167f4a39dc06d4c0dbc64b70af90fd698a233a518aa5d07e595d983b8c0526c8f7fb8686604051611e7a929190614245565b60405180910390a4611ea081856000868660405180602001604052806000815250612411565b50505050565b6000600360009054906101000a900473ffffffffffffffffffffffffffffffffffffffff16905081600360006101000a81548173ffffffffffffffffffffffffffffffffffffffff021916908373ffffffffffffffffffffffffffffffffffffffff1602179055508173ffffffffffffffffffffffffffffffffffffffff168173ffffffffffffffffffffffffffffffffffffffff167f8be0079c531659141344cd1fd0a4f28419497f9722a3daafe3b4186f6b6457e060405160405180910390a35050565b611f746113b7565b6001600360146101000a81548160ff0219169083151502179055507f62e78cea01bee320cd4e420270b5ea74000d11b0c9f74754ebdbfc544b05a258611fb861184c565b604051611fc59190613318565b60405180910390a1565b8173ffffffffffffffffffffffffffffffffffffffff168373ffffffffffffffffffffffffffffffffffffffff160361203d576040517f08c379a000000000000000000000000000000000000000000000000000000000815260040161203490614412565b60405180910390fd5b80600160008573ffffffffffffffffffffffffffffffffffffffff1673ffffffffffffffffffffffffffffffffffffffff16815260200190815260200160002060008473ffffffffffffffffffffffffffffffffffffffff1673ffffffffffffffffffffffffffffffffffffffff16815260200190815260200160002060006101000a81548160ff0219169083151502179055508173ffffffffffffffffffffffffffffffffffffffff168373ffffffffffffffffffffffffffffffffffffffff167f17307eab39ab6107e8899845ad3d59bd9653f200f220920489ca2b5937696c318360405161212e9190612a4b565b60405180910390a3505050565b600073ffffffffffffffffffffffffffffffffffffffff168373ffffffffffffffffffffffffffffffffffffffff16036121aa576040517f08c379a00000000000000000000000000000000000000000000000000000000081526004016121a1906142ee565b60405180910390fd5b60006121b461184c565b905060006121c184612381565b905060006121ce84612381565b90506121ee838760008585604051806020016040528060008152506123fb565b600080600087815260200190815260200160002060008873ffffffffffffffffffffffffffffffffffffffff1673ffffffffffffffffffffffffffffffffffffffff16815260200190815260200160002054905084811015612285576040517f08c379a000000000000000000000000000000000000000000000000000000000815260040161227c90614380565b60405180910390fd5b84810360008088815260200190815260200160002060008973ffffffffffffffffffffffffffffffffffffffff1673ffffffffffffffffffffffffffffffffffffffff16815260200190815260200160002081905550600073ffffffffffffffffffffffffffffffffffffffff168773ffffffffffffffffffffffffffffffffffffffff168573ffffffffffffffffffffffffffffffffffffffff167fc3d58168c5ae7397731d063d5bbf3d657854427343f4c083240f7aacaa2d0f628989604051612352929190614066565b60405180910390a461237884886000868660405180602001604052806000815250612411565b50505050505050565b60606000600167ffffffffffffffff8111156123a05761239f612a81565b5b6040519080825280602002602001820160405280156123ce5781602001602082028036833780820191505090505b50905082816000815181106123e6576123e5613e3b565b5b60200260200101818152505080915050919050565b612409868686868686612810565b505050505050565b505050505050565b6124388473ffffffffffffffffffffffffffffffffffffffff1661286e565b156125e8578373ffffffffffffffffffffffffffffffffffffffff1663f23a6e6187878686866040518663ffffffff1660e01b815260040161247e959493929190614487565b6020604051808303816000875af19250505080156124ba57506040513d601f19601f820116820180604052508101906124b791906144f6565b60015b61255f576124c6614530565b806308c379a00361252257506124da614552565b806124e55750612524565b806040517f08c379a00000000000000000000000000000000000000000000000000000000081526004016125199190612dda565b60405180910390fd5b505b6040517f08c379a000000000000000000000000000000000000000000000000000000000815260040161255690614654565b60405180910390fd5b63f23a6e6160e01b7bffffffffffffffffffffffffffffffffffffffffffffffffffffffff1916817bffffffffffffffffffffffffffffffffffffffffffffffffffffffff1916146125e6576040517f08c379a00000000000000000000000000000000000000000000000000000000081526004016125dd906146e6565b60405180910390fd5b505b505050505050565b61260f8473ffffffffffffffffffffffffffffffffffffffff1661286e565b156127bf578373ffffffffffffffffffffffffffffffffffffffff1663bc197c8187878686866040518663ffffffff1660e01b8152600401612655959493929190614706565b6020604051808303816000875af192505050801561269157506040513d601f19601f8201168201806040525081019061268e91906144f6565b60015b6127365761269d614530565b806308c379a0036126f957506126b1614552565b806126bc57506126fb565b806040517f08c379a00000000000000000000000000000000000000000000000000000000081526004016126f09190612dda565b60405180910390fd5b505b6040517f08c379a000000000000000000000000000000000000000000000000000000000815260040161272d90614654565b60405180910390fd5b63bc197c8160e01b7bffffffffffffffffffffffffffffffffffffffffffffffffffffffff1916817bffffffffffffffffffffffffffffffffffffffffffffffffffffffff1916146127bd576040517f08c379a00000000000000000000000000000000000000000000000000000000081526004016127b4906146e6565b60405180910390fd5b505b505050505050565b6127cf610fb5565b61280e576040517f08c379a0000000000000000000000000000000000000000000000000000000008152600401612805906147ba565b60405180910390fd5b565b61281e868686868686612891565b612826610fb5565b15612866576040517f08c379a000000000000000000000000000000000000000000000000000000000815260040161285d9061484c565b60405180910390fd5b505050505050565b6000808273ffffffffffffffffffffffffffffffffffffffff163b119050919050565b505050505050565b6000604051905090565b600080fd5b600080fd5b600073ffffffffffffffffffffffffffffffffffffffff82169050919050565b60006128d8826128ad565b9050919050565b6128e8816128cd565b81146128f357600080fd5b50565b600081359050612905816128df565b92915050565b6000819050919050565b61291e8161290b565b811461292957600080fd5b50565b60008135905061293b81612915565b92915050565b60008060408385031215612958576129576128a3565b5b6000612966858286016128f6565b92505060206129778582860161292c565b9150509250929050565b61298a8161290b565b82525050565b60006020820190506129a56000830184612981565b92915050565b60007fffffffff0000000000000000000000000000000000000000000000000000000082169050919050565b6129e0816129ab565b81146129eb57600080fd5b50565b6000813590506129fd816129d7565b92915050565b600060208284031215612a1957612a186128a3565b5b6000612a27848285016129ee565b91505092915050565b60008115159050919050565b612a4581612a30565b82525050565b6000602082019050612a606000830184612a3c565b92915050565b600080fd5b600080fd5b6000601f19601f8301169050919050565b7f4e487b7100000000000000000000000000000000000000000000000000000000600052604160045260246000fd5b612ab982612a70565b810181811067ffffffffffffffff82111715612ad857612ad7612a81565b5b80604052505050565b6000612aeb612899565b9050612af78282612ab0565b919050565b600067ffffffffffffffff821115612b1757612b16612a81565b5b612b2082612a70565b9050602081019050919050565b82818337600083830152505050565b6000612b4f612b4a84612afc565b612ae1565b905082815260208101848484011115612b6b57612b6a612a6b565b5b612b76848285612b2d565b509392505050565b600082601f830112612b9357612b92612a66565b5b8135612ba3848260208601612b3c565b91505092915050565b600067ffffffffffffffff821115612bc757612bc6612a81565b5b612bd082612a70565b9050602081019050919050565b6000612bf0612beb84612bac565b612ae1565b905082815260208101848484011115612c0c57612c0b612a6b565b5b612c17848285612b2d565b509392505050565b600082601f830112612c3457612c33612a66565b5b8135612c44848260208601612bdd565b91505092915050565b60008060008060008060c08789031215612c6a57612c696128a3565b5b600087013567ffffffffffffffff811115612c8857612c876128a8565b5b612c9489828a01612b7e565b9650506020612ca589828a0161292c565b9550506040612cb689828a0161292c565b9450506060612cc789828a0161292c565b935050608087013567ffffffffffffffff811115612ce857612ce76128a8565b5b612cf489828a01612b7e565b92505060a087013567ffffffffffffffff811115612d1557612d146128a8565b5b612d2189828a01612c1f565b9150509295509295509295565b600060208284031215612d4457612d436128a3565b5b6000612d528482850161292c565b91505092915050565b600081519050919050565b600082825260208201905092915050565b60005b83811015612d95578082015181840152602081019050612d7a565b60008484015250505050565b6000612dac82612d5b565b612db68185612d66565b9350612dc6818560208601612d77565b612dcf81612a70565b840191505092915050565b60006020820190508181036000830152612df48184612da1565b905092915050565b600080600060608486031215612e1557612e146128a3565b5b6000612e238682870161292c565b9350506020612e348682870161292c565b925050604084013567ffffffffffffffff811115612e5557612e546128a8565b5b612e6186828701612c1f565b9150509250925092565b600067ffffffffffffffff821115612e8657612e85612a81565b5b602082029050602081019050919050565b600080fd5b6000612eaf612eaa84612e6b565b612ae1565b90508083825260208201905060208402830185811115612ed257612ed1612e97565b5b835b81811015612efb5780612ee7888261292c565b845260208401935050602081019050612ed4565b5050509392505050565b600082601f830112612f1a57612f19612a66565b5b8135612f2a848260208601612e9c565b91505092915050565b600080600080600060a08688031215612f4f57612f4e6128a3565b5b6000612f5d888289016128f6565b9550506020612f6e888289016128f6565b945050604086013567ffffffffffffffff811115612f8f57612f8e6128a8565b5b612f9b88828901612f05565b935050606086013567ffffffffffffffff811115612fbc57612fbb6128a8565b5b612fc888828901612f05565b925050608086013567ffffffffffffffff811115612fe957612fe86128a8565b5b612ff588828901612c1f565b9150509295509295909350565b600067ffffffffffffffff82111561301d5761301c612a81565b5b602082029050602081019050919050565b600061304161303c84613002565b612ae1565b9050808382526020820190506020840283018581111561306457613063612e97565b5b835b8181101561308d578061307988826128f6565b845260208401935050602081019050613066565b5050509392505050565b600082601f8301126130ac576130ab612a66565b5b81356130bc84826020860161302e565b91505092915050565b600080604083850312156130dc576130db6128a3565b5b600083013567ffffffffffffffff8111156130fa576130f96128a8565b5b61310685828601613097565b925050602083013567ffffffffffffffff811115613127576131266128a8565b5b61313385828601612f05565b9150509250929050565b600081519050919050565b600082825260208201905092915050565b6000819050602082019050919050565b6131728161290b565b82525050565b60006131848383613169565b60208301905092915050565b6000602082019050919050565b60006131a88261313d565b6131b28185613148565b93506131bd83613159565b8060005b838110156131ee5781516131d58882613178565b97506131e083613190565b9250506001810190506131c1565b5085935050505092915050565b60006020820190508181036000830152613215818461319d565b905092915050565b600060a0820190506132326000830188612981565b81810360208301526132448187612da1565b90506132536040830186612981565b6132606060830185612981565b81810360808301526132728184612da1565b90509695505050505050565b600080600060608486031215613297576132966128a3565b5b60006132a5868287016128f6565b935050602084013567ffffffffffffffff8111156132c6576132c56128a8565b5b6132d286828701612f05565b925050604084013567ffffffffffffffff8111156132f3576132f26128a8565b5b6132ff86828701612f05565b9150509250925092565b613312816128cd565b82525050565b600060208201905061332d6000830184613309565b92915050565b61333c81612a30565b811461334757600080fd5b50565b60008135905061335981613333565b92915050565b60008060408385031215613376576133756128a3565b5b6000613384858286016128f6565b92505060206133958582860161334a565b9150509250929050565b600080604083850312156133b6576133b56128a3565b5b60006133c4858286016128f6565b92505060206133d5858286016128f6565b9150509250929050565b600080600080600060a086880312156133fb576133fa6128a3565b5b6000613409888289016128f6565b955050602061341a888289016128f6565b945050604061342b8882890161292c565b935050606061343c8882890161292c565b925050608086013567ffffffffffffffff81111561345d5761345c6128a8565b5b61346988828901612c1f565b9150509295509295909350565b60006020828403121561348c5761348b6128a3565b5b600061349a848285016128f6565b91505092915050565b6000806000606084860312156134bc576134bb6128a3565b5b60006134ca868287016128f6565b93505060206134db8682870161292c565b92505060406134ec8682870161292c565b9150509250925092565b7f455243313135353a2061646472657373207a65726f206973206e6f742061207660008201527f616c6964206f776e657200000000000000000000000000000000000000000000602082015250565b6000613552602a83612d66565b915061355d826134f6565b604082019050919050565b6000602082019050818103600083015261358181613545565b9050919050565b7f496e636f727265637420616d6f756e7400000000000000000000000000000000600082015250565b60006135be601083612d66565b91506135c982613588565b602082019050919050565b600060208201905081810360008301526135ed816135b1565b9050919050565b7f496e636f7272656374206d617853656c6c506572506572736f6e000000000000600082015250565b600061362a601a83612d66565b9150613635826135f4565b602082019050919050565b600060208201905081810360008301526136598161361d565b9050919050565b7f4e487b7100000000000000000000000000000000000000000000000000000000600052601160045260246000fd5b600061369a8261290b565b91507fffffffffffffffffffffffffffffffffffffffffffffffffffffffffffffffff82036136cc576136cb613660565b5b600182019050919050565b7f4e487b7100000000000000000000000000000000000000000000000000000000600052602260045260246000fd5b6000600282049050600182168061371e57607f821691505b602082108103613731576137306136d7565b5b50919050565b60008190508160005260206000209050919050565b60006020601f8301049050919050565b600082821b905092915050565b6000600883026137997fffffffffffffffffffffffffffffffffffffffffffffffffffffffffffffffff8261375c565b6137a3868361375c565b95508019841693508086168417925050509392505050565b6000819050919050565b60006137e06137db6137d68461290b565b6137bb565b61290b565b9050919050565b6000819050919050565b6137fa836137c5565b61380e613806826137e7565b848454613769565b825550505050565b600090565b613823613816565b61382e8184846137f1565b505050565b5b818110156138525761384760008261381b565b600181019050613834565b5050565b601f8211156138975761386881613737565b6138718461374c565b81016020851015613880578190505b61389461388c8561374c565b830182613833565b50505b505050565b600082821c905092915050565b60006138ba6000198460080261389c565b1980831691505092915050565b60006138d383836138a9565b9150826002028217905092915050565b6138ec82612d5b565b67ffffffffffffffff81111561390557613904612a81565b5b61390f8254613706565b61391a828285613856565b600060209050601f83116001811461394d576000841561393b578287015190505b61394585826138c7565b8655506139ad565b601f19841661395b86613737565b60005b828110156139835784890151825560018201915060208501945060208101905061395e565b868310156139a0578489015161399c601f8916826138a9565b8355505b6001600288020188555050505b505050505050565b600081905092915050565b60006139cb82612d5b565b6139d581856139b5565b93506139e5818560208601612d77565b80840191505092915050565b60006139fd82846139c0565b915081905092915050565b6000606082019050613a1d6000830186612981565b613a2a6020830185612981565b613a376040830184612981565b949350505050565b7f416d6f756e74206d75737420626967676572207468616e203000000000000000600082015250565b6000613a75601983612d66565b9150613a8082613a3f565b602082019050919050565b60006020820190508181036000830152613aa481613a68565b9050919050565b7f4e6f7420656e6f756768207469636b6574730000000000000000000000000000600082015250565b6000613ae1601283612d66565b9150613aec82613aab565b602082019050919050565b60006020820190508181036000830152613b1081613ad4565b9050919050565b6000613b228261290b565b9150613b2d8361290b565b9250828201905080821115613b4557613b44613660565b5b92915050565b7f4d617820616d6d6f756e742070657220706572736f6e20726561636865640000600082015250565b6000613b81601e83612d66565b9150613b8c82613b4b565b602082019050919050565b60006020820190508181036000830152613bb081613b74565b9050919050565b6000613bc28261290b565b9150613bcd8361290b565b9250828202613bdb8161290b565b91508282048414831517613bf257613bf1613660565b5b5092915050565b7f5469636b657420646f6573206e6f742065786973740000000000000000000000600082015250565b6000613c2f601583612d66565b9150613c3a82613bf9565b602082019050919050565b60006020820190508181036000830152613c5e81613c22565b9050919050565b600081905092915050565b50565b6000613c80600083613c65565b9150613c8b82613c70565b600082019050919050565b6000613ca182613c73565b9150819050919050565b7f4661696c656420746f2073656e64204574686572000000000000000000000000600082015250565b6000613ce1601483612d66565b9150613cec82613cab565b602082019050919050565b60006020820190508181036000830152613d1081613cd4565b9050919050565b7f455243313135353a2063616c6c6572206973206e6f7420746f6b656e206f776e60008201527f6572206f7220617070726f766564000000000000000000000000000000000000602082015250565b6000613d73602e83612d66565b9150613d7e82613d17565b604082019050919050565b60006020820190508181036000830152613da281613d66565b9050919050565b7f455243313135353a206163636f756e747320616e6420696473206c656e67746860008201527f206d69736d617463680000000000000000000000000000000000000000000000602082015250565b6000613e05602983612d66565b9150613e1082613da9565b604082019050919050565b60006020820190508181036000830152613e3481613df8565b9050919050565b7f4e487b7100000000000000000000000000000000000000000000000000000000600052603260045260246000fd5b7f4f776e61626c653a206e6577206f776e657220697320746865207a65726f206160008201527f6464726573730000000000000000000000000000000000000000000000000000602082015250565b6000613ec6602683612d66565b9150613ed182613e6a565b604082019050919050565b60006020820190508181036000830152613ef581613eb9565b9050919050565b7f4f776e61626c653a2063616c6c6572206973206e6f7420746865206f776e6572600082015250565b6000613f32602083612d66565b9150613f3d82613efc565b602082019050919050565b60006020820190508181036000830152613f6181613f25565b9050919050565b7f5061757361626c653a2070617573656400000000000000000000000000000000600082015250565b6000613f9e601083612d66565b9150613fa982613f68565b602082019050919050565b60006020820190508181036000830152613fcd81613f91565b9050919050565b7f455243313135353a206d696e7420746f20746865207a65726f2061646472657360008201527f7300000000000000000000000000000000000000000000000000000000000000602082015250565b6000614030602183612d66565b915061403b82613fd4565b604082019050919050565b6000602082019050818103600083015261405f81614023565b9050919050565b600060408201905061407b6000830185612981565b6140886020830184612981565b9392505050565b7f455243313135353a207472616e7366657220746f20746865207a65726f20616460008201527f6472657373000000000000000000000000000000000000000000000000000000602082015250565b60006140eb602583612d66565b91506140f68261408f565b604082019050919050565b6000602082019050818103600083015261411a816140de565b9050919050565b7f455243313135353a20696e73756666696369656e742062616c616e636520666f60008201527f72207472616e7366657200000000000000000000000000000000000000000000602082015250565b600061417d602a83612d66565b915061418882614121565b604082019050919050565b600060208201905081810360008301526141ac81614170565b9050919050565b7f455243313135353a2069647320616e6420616d6f756e7473206c656e6774682060008201527f6d69736d61746368000000000000000000000000000000000000000000000000602082015250565b600061420f602883612d66565b915061421a826141b3565b604082019050919050565b6000602082019050818103600083015261423e81614202565b9050919050565b6000604082019050818103600083015261425f818561319d565b90508181036020830152614273818461319d565b90509392505050565b7f455243313135353a206275726e2066726f6d20746865207a65726f206164647260008201527f6573730000000000000000000000000000000000000000000000000000000000602082015250565b60006142d8602383612d66565b91506142e38261427c565b604082019050919050565b60006020820190508181036000830152614307816142cb565b9050919050565b7f455243313135353a206275726e20616d6f756e7420657863656564732062616c60008201527f616e636500000000000000000000000000000000000000000000000000000000602082015250565b600061436a602483612d66565b91506143758261430e565b604082019050919050565b600060208201905081810360008301526143998161435d565b9050919050565b7f455243313135353a2073657474696e6720617070726f76616c2073746174757360008201527f20666f722073656c660000000000000000000000000000000000000000000000602082015250565b60006143fc602983612d66565b9150614407826143a0565b604082019050919050565b6000602082019050818103600083015261442b816143ef565b9050919050565b600081519050919050565b600082825260208201905092915050565b600061445982614432565b614463818561443d565b9350614473818560208601612d77565b61447c81612a70565b840191505092915050565b600060a08201905061449c6000830188613309565b6144a96020830187613309565b6144b66040830186612981565b6144c36060830185612981565b81810360808301526144d5818461444e565b90509695505050505050565b6000815190506144f0816129d7565b92915050565b60006020828403121561450c5761450b6128a3565b5b600061451a848285016144e1565b91505092915050565b60008160e01c9050919050565b600060033d111561454f5760046000803e61454c600051614523565b90505b90565b600060443d106145df57614564612899565b60043d036004823e80513d602482011167ffffffffffffffff8211171561458c5750506145df565b808201805167ffffffffffffffff8111156145aa57505050506145df565b80602083010160043d0385018111156145c75750505050506145df565b6145d682602001850186612ab0565b82955050505050505b90565b7f455243313135353a207472616e7366657220746f206e6f6e2d4552433131353560008201527f526563656976657220696d706c656d656e746572000000000000000000000000602082015250565b600061463e603483612d66565b9150614649826145e2565b604082019050919050565b6000602082019050818103600083015261466d81614631565b9050919050565b7f455243313135353a204552433131353552656365697665722072656a6563746560008201527f6420746f6b656e73000000000000000000000000000000000000000000000000602082015250565b60006146d0602883612d66565b91506146db82614674565b604082019050919050565b600060208201905081810360008301526146ff816146c3565b9050919050565b600060a08201905061471b6000830188613309565b6147286020830187613309565b818103604083015261473a818661319d565b9050818103606083015261474e818561319d565b90508181036080830152614762818461444e565b90509695505050505050565b7f5061757361626c653a206e6f7420706175736564000000000000000000000000600082015250565b60006147a4601483612d66565b91506147af8261476e565b602082019050919050565b600060208201905081810360008301526147d381614797565b9050919050565b7f455243313135355061757361626c653a20746f6b656e207472616e736665722060008201527f7768696c65207061757365640000000000000000000000000000000000000000602082015250565b6000614836602c83612d66565b9150614841826147da565b604082019050919050565b6000602082019050818103600083015261486581614829565b905091905056fea26469706673582212202709e0b78094b5a38cb904d7a0e506d67e5b1910318b8edeabf5f92f44c7514b64736f6c63430008140033",
  "linkReferences": {},
  "deployedLinkReferences": {}
}